{
  "_format": "hh-sol-artifact-1",
  "contractName": "OperantXRegistry",
  "sourceName": "contracts/OperantXRegistry.sol",
  "abi": [
    {
      "anonymous": false,
      "inputs": [
        {
          "indexed": true,
          "internalType": "bytes32",
          "name": "jobId",
          "type": "bytes32"
        },
        {
          "indexed": true,
          "internalType": "address",
          "name": "accepter",
          "type": "address"
        }
      ],
      "name": "JobAccepted",
      "type": "event"
    },
    {
      "anonymous": false,
      "inputs": [
        {
          "indexed": true,
          "internalType": "bytes32",
          "name": "jobId",
          "type": "bytes32"
        },
        {
          "indexed": true,
          "internalType": "address",
          "name": "confirmer",
          "type": "address"
        }
      ],
      "name": "JobCompleted",
      "type": "event"
    },
    {
      "anonymous": false,
      "inputs": [
        {
          "indexed": true,
          "internalType": "bytes32",
          "name": "jobId",
          "type": "bytes32"
        },
        {
          "indexed": true,
          "internalType": "address",
          "name": "creator",
          "type": "address"
        },
        {
          "indexed": false,
          "internalType": "bytes32",
          "name": "jobHash",
          "type": "bytes32"
        }
      ],
      "name": "JobRecorded",
      "type": "event"
    },
    {
      "anonymous": false,
      "inputs": [
        {
          "indexed": true,
          "internalType": "address",
          "name": "owner",
          "type": "address"
        },
        {
          "indexed": true,
          "internalType": "bytes32",
          "name": "machineId",
          "type": "bytes32"
        },
        {
          "indexed": false,
          "internalType": "bytes32",
          "name": "metadataHash",
          "type": "bytes32"
        }
      ],
      "name": "MachineListed",
      "type": "event"
    },
    {
      "anonymous": false,
      "inputs": [
        {
          "indexed": true,
          "internalType": "address",
          "name": "wallet",
          "type": "address"
        },
        {
          "indexed": true,
          "internalType": "bytes32",
          "name": "profileId",
          "type": "bytes32"
        }
      ],
      "name": "ProfileRegistered",
      "type": "event"
    },
    {
      "inputs": [
        {
          "internalType": "bytes32",
          "name": "jobId",
          "type": "bytes32"
        }
      ],
      "name": "acceptJob",
      "outputs": [],
      "stateMutability": "nonpayable",
      "type": "function"
    },
    {
      "inputs": [
        {
          "internalType": "bytes32",
          "name": "jobId",
          "type": "bytes32"
        }
      ],
      "name": "confirmCompletion",
      "outputs": [],
      "stateMutability": "nonpayable",
      "type": "function"
    },
    {
      "inputs": [
        {
          "internalType": "bytes32",
          "name": "",
          "type": "bytes32"
        }
      ],
      "name": "jobAccepter",
      "outputs": [
        {
          "internalType": "address",
          "name": "",
          "type": "address"
        }
      ],
      "stateMutability": "view",
      "type": "function"
    },
    {
      "inputs": [
        {
          "internalType": "bytes32",
          "name": "",
          "type": "bytes32"
        }
      ],
      "name": "jobCompleted",
      "outputs": [
        {
          "internalType": "bool",
          "name": "",
          "type": "bool"
        }
      ],
      "stateMutability": "view",
      "type": "function"
    },
    {
      "inputs": [
        {
          "internalType": "bytes32",
          "name": "",
          "type": "bytes32"
        }
      ],
      "name": "jobCreator",
      "outputs": [
        {
          "internalType": "address",
          "name": "",
          "type": "address"
        }
      ],
      "stateMutability": "view",
      "type": "function"
    },
    {
      "inputs": [
        {
          "internalType": "bytes32",
          "name": "",
          "type": "bytes32"
        }
      ],
      "name": "jobHashOf",
      "outputs": [
        {
          "internalType": "bytes32",
          "name": "",
          "type": "bytes32"
        }
      ],
      "stateMutability": "view",
      "type": "function"
    },
    {
      "inputs": [
        {
          "internalType": "bytes32",
          "name": "machineId",
          "type": "bytes32"
        },
        {
          "internalType": "bytes32",
          "name": "metadataHash",
          "type": "bytes32"
        }
      ],
      "name": "listMachine",
      "outputs": [],
      "stateMutability": "nonpayable",
      "type": "function"
    },
    {
      "inputs": [
        {
          "internalType": "address",
          "name": "",
          "type": "address"
        }
      ],
      "name": "profileOf",
      "outputs": [
        {
          "internalType": "bytes32",
          "name": "",
          "type": "bytes32"
        }
      ],
      "stateMutability": "view",
      "type": "function"
    },
    {
      "inputs": [
        {
          "internalType": "bytes32",
          "name": "jobId",
          "type": "bytes32"
        },
        {
          "internalType": "bytes32",
          "name": "jobHash",
          "type": "bytes32"
        }
      ],
      "name": "recordJob",
      "outputs": [],
      "stateMutability": "nonpayable",
      "type": "function"
    },
    {
      "inputs": [
        {
          "internalType": "bytes32",
          "name": "profileId",
          "type": "bytes32"
        }
      ],
      "name": "registerProfile",
      "outputs": [],
      "stateMutability": "nonpayable",
      "type": "function"
    }
  ],
  "bytecode": "0x608060405234801561001057600080fd5b50610cc1806100206000396000f3fe608060405234801561001057600080fd5b506004361061009e5760003560e01c80635754680d116100665780635754680d146101575780636e71fd991461017357806392d17e1f146101a3578063a2dfa0b8146101d3578063b8948790146102035761009e565b80630f6ed2ec146100a35780632f8eb9cb146100bf5780632f928c07146100ef5780633e27e0de1461011f57806349551b8d1461013b575b600080fd5b6100bd60048036038101906100b89190610948565b61021f565b005b6100d960048036038101906100d491906109d3565b6102a9565b6040516100e69190610a0f565b60405180910390f35b61010960048036038101906101049190610948565b6102c1565b6040516101169190610a0f565b60405180910390f35b61013960048036038101906101349190610a2a565b6102d9565b005b61015560048036038101906101509190610a2a565b610438565b005b610171600480360381019061016c9190610948565b61048b565b005b61018d60048036038101906101889190610948565b6106aa565b60405161019a9190610a79565b60405180910390f35b6101bd60048036038101906101b89190610948565b6106dd565b6040516101ca9190610aaf565b60405180910390f35b6101ed60048036038101906101e89190610948565b6106fd565b6040516101fa9190610a79565b60405180910390f35b61021d60048036038101906102189190610948565b610730565b005b806000803373ffffffffffffffffffffffffffffffffffffffff1673ffffffffffffffffffffffffffffffffffffffff16815260200190815260200160002081905550803373ffffffffffffffffffffffffffffffffffffffff167f87c2997a617bcdc07c473eb607bd465e6bd13000d2912a829937bf3081dc236960405160405180910390a350565b60006020528060005260406000206000915090505481565b60036020528060005260406000206000915090505481565b600073ffffffffffffffffffffffffffffffffffffffff166001600084815260200190815260200160002060009054906101000a900473ffffffffffffffffffffffffffffffffffffffff1673ffffffffffffffffffffffffffffffffffffffff161461037b576040517f08c379a000000000000000000000000000000000000000000000000000000000815260040161037290610b27565b60405180910390fd5b336001600084815260200190815260200160002060006101000a81548173ffffffffffffffffffffffffffffffffffffffff021916908373ffffffffffffffffffffffffffffffffffffffff1602179055508060036000848152602001908152602001600020819055503373ffffffffffffffffffffffffffffffffffffffff16827ffd67771e26ea9b63aeb6eb01647534a47dedf2ad112f3c8fba93cd31eb3d84758360405161042c9190610a0f565b60405180910390a35050565b813373ffffffffffffffffffffffffffffffffffffffff167fc129ede8c1df26c8623ae6cd2a50727d22ad56c7e7113a50f6822e0f9d19b15d8360405161047f9190610a0f565b60405180910390a35050565b600073ffffffffffffffffffffffffffffffffffffffff166001600083815260200190815260200160002060009054906101000a900473ffffffffffffffffffffffffffffffffffffffff1673ffffffffffffffffffffffffffffffffffffffff160361052d576040517f08c379a000000000000000000000000000000000000000000000000000000000815260040161052490610b93565b60405180910390fd5b6001600082815260200190815260200160002060009054906101000a900473ffffffffffffffffffffffffffffffffffffffff1673ffffffffffffffffffffffffffffffffffffffff163373ffffffffffffffffffffffffffffffffffffffff1614806105f857506002600082815260200190815260200160002060009054906101000a900473ffffffffffffffffffffffffffffffffffffffff1673ffffffffffffffffffffffffffffffffffffffff163373ffffffffffffffffffffffffffffffffffffffff16145b610637576040517f08c379a000000000000000000000000000000000000000000000000000000000815260040161062e90610bff565b60405180910390fd5b60016004600083815260200190815260200160002060006101000a81548160ff0219169083151502179055503373ffffffffffffffffffffffffffffffffffffffff16817f2eb232e6016c02184be27a83e4de89963f9a5503522a4f7899aad0fd26f9338360405160405180910390a350565b60026020528060005260406000206000915054906101000a900473ffffffffffffffffffffffffffffffffffffffff1681565b60046020528060005260406000206000915054906101000a900460ff1681565b60016020528060005260406000206000915054906101000a900473ffffffffffffffffffffffffffffffffffffffff1681565b600073ffffffffffffffffffffffffffffffffffffffff166001600083815260200190815260200160002060009054906101000a900473ffffffffffffffffffffffffffffffffffffffff1673ffffffffffffffffffffffffffffffffffffffff16036107d2576040517f08c379a00000000000000000000000000000000000000000000000000000000081526004016107c990610b93565b60405180910390fd5b600073ffffffffffffffffffffffffffffffffffffffff166002600083815260200190815260200160002060009054906101000a900473ffffffffffffffffffffffffffffffffffffffff1673ffffffffffffffffffffffffffffffffffffffff1614610874576040517f08c379a000000000000000000000000000000000000000000000000000000000815260040161086b90610c6b565b60405180910390fd5b336002600083815260200190815260200160002060006101000a81548173ffffffffffffffffffffffffffffffffffffffff021916908373ffffffffffffffffffffffffffffffffffffffff1602179055503373ffffffffffffffffffffffffffffffffffffffff16817f8cd40df77c7e62e517c29fe28dbc9cc5f986c00f7e4c7007242dd0acefdf86de60405160405180910390a350565b600080fd5b6000819050919050565b61092581610912565b811461093057600080fd5b50565b6000813590506109428161091c565b92915050565b60006020828403121561095e5761095d61090d565b5b600061096c84828501610933565b91505092915050565b600073ffffffffffffffffffffffffffffffffffffffff82169050919050565b60006109a082610975565b9050919050565b6109b081610995565b81146109bb57600080fd5b50565b6000813590506109cd816109a7565b92915050565b6000602082840312156109e9576109e861090d565b5b60006109f7848285016109be565b91505092915050565b610a0981610912565b82525050565b6000602082019050610a246000830184610a00565b92915050565b60008060408385031215610a4157610a4061090d565b5b6000610a4f85828601610933565b9250506020610a6085828601610933565b9150509250929050565b610a7381610995565b82525050565b6000602082019050610a8e6000830184610a6a565b92915050565b60008115159050919050565b610aa981610a94565b82525050565b6000602082019050610ac46000830184610aa0565b92915050565b600082825260208201905092915050565b7f6a6f625f65786973747300000000000000000000000000000000000000000000600082015250565b6000610b11600a83610aca565b9150610b1c82610adb565b602082019050919050565b60006020820190508181036000830152610b4081610b04565b9050919050565b7f6a6f625f6d697373696e67000000000000000000000000000000000000000000600082015250565b6000610b7d600b83610aca565b9150610b8882610b47565b602082019050919050565b60006020820190508181036000830152610bac81610b70565b9050919050565b7f6e6f745f7061727469636970616e740000000000000000000000000000000000600082015250565b6000610be9600f83610aca565b9150610bf482610bb3565b602082019050919050565b60006020820190508181036000830152610c1881610bdc565b9050919050565b7f6a6f625f616c72656164795f6163636570746564000000000000000000000000600082015250565b6000610c55601483610aca565b9150610c6082610c1f565b602082019050919050565b60006020820190508181036000830152610c8481610c48565b905091905056fea2646970667358221220b45b040e53ec90f22d2f45312fc0eb588a0317fa0aeb64aef3358e1addad9ad764736f6c63430008180033",
  "linkReferences": {},
  "deployedLinkReferences": {}
}